{
  "_format": "hh-sol-artifact-1",
  "contractName": "StakingPlatform",
  "sourceName": "contracts/StakingPlatform.sol",
  "abi": [
    {
      "inputs": [
        {
          "internalType": "address",
          "name": "_stakingToken",
          "type": "address"
        },
        {
          "internalType": "address",
          "name": "_rewardToken",
          "type": "address"
        }
      ],
      "stateMutability": "nonpayable",
      "type": "constructor"
    },
    {
      "anonymous": false,
      "inputs": [
        {
          "indexed": false,
          "internalType": "uint256",
          "name": "apy",
          "type": "uint256"
        }
      ],
      "name": "APYUpdated",
      "type": "event"
    },
    {
      "anonymous": false,
      "inputs": [
        {
          "indexed": true,
          "internalType": "address",
          "name": "oracle",
          "type": "address"
        }
      ],
      "name": "OracleUpdated",
      "type": "event"
    },
    {
      "anonymous": false,
      "inputs": [
        {
          "indexed": true,
          "internalType": "address",
          "name": "previousOwner",
          "type": "address"
        },
        {
          "indexed": true,
          "internalType": "address",
          "name": "newOwner",
          "type": "address"
        }
      ],
      "name": "OwnershipTransferred",
      "type": "event"
    },
    {
      "anonymous": false,
      "inputs": [
        {
          "indexed": true,
          "internalType": "address",
          "name": "user",
          "type": "address"
        },
        {
          "indexed": false,
          "internalType": "uint256",
          "name": "amount",
          "type": "uint256"
        }
      ],
      "name": "RewardClaimed",
      "type": "event"
    },
    {
      "anonymous": false,
      "inputs": [
        {
          "indexed": true,
          "internalType": "address",
          "name": "user",
          "type": "address"
        },
        {
          "indexed": false,
          "internalType": "uint256",
          "name": "amount",
          "type": "uint256"
        },
        {
          "indexed": false,
          "internalType": "uint256",
          "name": "timestamp",
          "type": "uint256"
        }
      ],
      "name": "Staked",
      "type": "event"
    },
    {
      "anonymous": false,
      "inputs": [
        {
          "indexed": true,
          "internalType": "address",
          "name": "user",
          "type": "address"
        },
        {
          "indexed": false,
          "internalType": "uint256",
          "name": "amount",
          "type": "uint256"
        },
        {
          "indexed": false,
          "internalType": "uint256",
          "name": "timestamp",
          "type": "uint256"
        }
      ],
      "name": "Unstaked",
      "type": "event"
    },
    {
      "inputs": [],
      "name": "WITHDRAWAL_LOCK",
      "outputs": [
        {
          "internalType": "uint256",
          "name": "",
          "type": "uint256"
        }
      ],
      "stateMutability": "view",
      "type": "function"
    },
    {
      "inputs": [],
      "name": "baseAPY",
      "outputs": [
        {
          "internalType": "uint256",
          "name": "",
          "type": "uint256"
        }
      ],
      "stateMutability": "view",
      "type": "function"
    },
    {
      "inputs": [],
      "name": "claimRewards",
      "outputs": [],
      "stateMutability": "nonpayable",
      "type": "function"
    },
    {
      "inputs": [],
      "name": "getAPY",
      "outputs": [
        {
          "internalType": "uint256",
          "name": "apy",
          "type": "uint256"
        }
      ],
      "stateMutability": "view",
      "type": "function"
    },
    {
      "inputs": [
        {
          "internalType": "address",
          "name": "userAddr",
          "type": "address"
        }
      ],
      "name": "getStake",
      "outputs": [
        {
          "components": [
            {
              "internalType": "uint256",
              "name": "amount",
              "type": "uint256"
            },
            {
              "internalType": "uint256",
              "name": "stakingTime",
              "type": "uint256"
            },
            {
              "internalType": "uint256",
              "name": "lastClaimTime",
              "type": "uint256"
            },
            {
              "internalType": "uint256",
              "name": "accumulatedRewards",
              "type": "uint256"
            }
          ],
          "internalType": "struct StakingPlatform.Stake",
          "name": "",
          "type": "tuple"
        }
      ],
      "stateMutability": "view",
      "type": "function"
    },
    {
      "inputs": [],
      "name": "oracle",
      "outputs": [
        {
          "internalType": "contract IOracle",
          "name": "",
          "type": "address"
        }
      ],
      "stateMutability": "view",
      "type": "function"
    },
    {
      "inputs": [],
      "name": "owner",
      "outputs": [
        {
          "internalType": "address",
          "name": "",
          "type": "address"
        }
      ],
      "stateMutability": "view",
      "type": "function"
    },
    {
      "inputs": [
        {
          "internalType": "address",
          "name": "userAddr",
          "type": "address"
        }
      ],
      "name": "pendingRewards",
      "outputs": [
        {
          "internalType": "uint256",
          "name": "pending",
          "type": "uint256"
        }
      ],
      "stateMutability": "view",
      "type": "function"
    },
    {
      "inputs": [],
      "name": "renounceOwnership",
      "outputs": [],
      "stateMutability": "nonpayable",
      "type": "function"
    },
    {
      "inputs": [],
      "name": "rewardToken",
      "outputs": [
        {
          "internalType": "contract IRewardToken",
          "name": "",
          "type": "address"
        }
      ],
      "stateMutability": "view",
      "type": "function"
    },
    {
      "inputs": [
        {
          "internalType": "address",
          "name": "_oracle",
          "type": "address"
        }
      ],
      "name": "setOracle",
      "outputs": [],
      "stateMutability": "nonpayable",
      "type": "function"
    },
    {
      "inputs": [
        {
          "internalType": "uint256",
          "name": "amount",
          "type": "uint256"
        }
      ],
      "name": "stake",
      "outputs": [],
      "stateMutability": "nonpayable",
      "type": "function"
    },
    {
      "inputs": [
        {
          "internalType": "address",
          "name": "",
          "type": "address"
        }
      ],
      "name": "stakes",
      "outputs": [
        {
          "internalType": "uint256",
          "name": "amount",
          "type": "uint256"
        },
        {
          "internalType": "uint256",
          "name": "stakingTime",
          "type": "uint256"
        },
        {
          "internalType": "uint256",
          "name": "lastClaimTime",
          "type": "uint256"
        },
        {
          "internalType": "uint256",
          "name": "accumulatedRewards",
          "type": "uint256"
        }
      ],
      "stateMutability": "view",
      "type": "function"
    },
    {
      "inputs": [],
      "name": "stakingToken",
      "outputs": [
        {
          "internalType": "contract IERC20",
          "name": "",
          "type": "address"
        }
      ],
      "stateMutability": "view",
      "type": "function"
    },
    {
      "inputs": [],
      "name": "totalStaked",
      "outputs": [
        {
          "internalType": "uint256",
          "name": "",
          "type": "uint256"
        }
      ],
      "stateMutability": "view",
      "type": "function"
    },
    {
      "inputs": [
        {
          "internalType": "address",
          "name": "newOwner",
          "type": "address"
        }
      ],
      "name": "transferOwnership",
      "outputs": [],
      "stateMutability": "nonpayable",
      "type": "function"
    },
    {
      "inputs": [
        {
          "internalType": "uint256",
          "name": "amount",
          "type": "uint256"
        }
      ],
      "name": "unstake",
      "outputs": [],
      "stateMutability": "nonpayable",
      "type": "function"
    }
  ],
  "bytecode": "0x60806040526103e860065534801561001657600080fd5b50604051610e7e380380610e7e83398101604081905261003591610190565b61003e33610124565b600180556001600160a01b03821661009d5760405162461bcd60e51b815260206004820152601360248201527f496e76616c6964207374616b6520746f6b656e0000000000000000000000000060448201526064015b60405180910390fd5b6001600160a01b0381166100f35760405162461bcd60e51b815260206004820152601460248201527f496e76616c69642072657761726420746f6b656e0000000000000000000000006044820152606401610094565b600280546001600160a01b039384166001600160a01b031991821617909155600380549290931691161790556101c3565b600080546001600160a01b038381166001600160a01b0319831681178455604051919092169283917f8be0079c531659141344cd1fd0a4f28419497f9722a3daafe3b4186f6b6457e09190a35050565b80516001600160a01b038116811461018b57600080fd5b919050565b600080604083850312156101a357600080fd5b6101ac83610174565b91506101ba60208401610174565b90509250929050565b610cac806101d26000396000f3fe608060405234801561001057600080fd5b506004361061010b5760003560e01c80637adbf973116100a2578063a0f2ed0711610071578063a0f2ed071461026a578063a694fc3a14610274578063d2cbf7ad14610287578063f2fde38b1461028f578063f7c618c1146102a257600080fd5b80637adbf9731461022a5780637dc0d1d01461023d578063817b1cd2146102505780638da5cb5b1461025957600080fd5b8063372500ab116100de578063372500ab146101a9578063715018a6146101b157806372f702f3146101b95780637a766460146101e457600080fd5b806316934fc414610110578063214405a91461016a5780632e17de781461018157806331d7a26214610196575b600080fd5b61014561011e366004610b77565b60076020526000908152604090208054600182015460028301546003909301549192909184565b6040805194855260208501939093529183015260608201526080015b60405180910390f35b61017360065481565b604051908152602001610161565b61019461018f366004610ba7565b6102b5565b005b6101736101a4366004610b77565b6104af565b61019461055c565b610194610577565b6002546101cc906001600160a01b031681565b6040516001600160a01b039091168152602001610161565b6101f76101f2366004610b77565b610589565b60405161016191908151815260208083015190820152604080830151908201526060918201519181019190915260800190565b610194610238366004610b77565b610602565b6004546101cc906001600160a01b031681565b61017360055481565b6000546001600160a01b03166101cc565b61017362093a8081565b610194610282366004610ba7565b61069b565b610173610843565b61019461029d366004610b77565b6108e8565b6003546101cc906001600160a01b031681565b6102bd61095e565b33600090815260076020526040902080548211156103175760405162461bcd60e51b8152602060048201526012602482015271496e73756666696369656e74207374616b6560701b60448201526064015b60405180910390fd5b62093a80816001015461032a9190610bd6565b4210156103675760405162461bcd60e51b815260206004820152600b60248201526a4c6f636b2061637469766560a81b604482015260640161030e565b6000610372336104af565b90508015610382576103826109b7565b828260000160008282546103969190610bef565b9250508190555082600560008282546103af9190610bef565b909155505060025460405163a9059cbb60e01b8152336004820152602481018590526001600160a01b039091169063a9059cbb906044016020604051808303816000875af1158015610405573d6000803e3d6000fd5b505050506040513d601f19601f820116820180604052508101906104299190610c02565b6104675760405162461bcd60e51b815260206004820152600f60248201526e151c985b9cd9995c8819985a5b1959608a1b604482015260640161030e565b6040805184815242602082015233917f7fc4727e062e336010f2c282598ef5f14facb3de68cf8195c2f23e1454b2b74e910160405180910390a250506104ac60018055565b50565b6001600160a01b0381166000908152600760209081526040808320815160808101835281548082526001830154948201949094526002820154928101929092526003015460608201529082036105085750600092915050565b600081604001514261051a9190610bef565b90506000610526610843565b905064496cebb8008282856000015161053f9190610c24565b6105499190610c24565b6105539190610c3b565b95945050505050565b61056461095e565b61056c6109b7565b61057560018055565b565b61057f610acd565b6105756000610b27565b6105b46040518060800160405280600081526020016000815260200160008152602001600081525090565b506001600160a01b0316600090815260076020908152604091829020825160808101845281548152600182015492810192909252600281015492820192909252600390910154606082015290565b61060a610acd565b6001600160a01b0381166106515760405162461bcd60e51b815260206004820152600e60248201526d496e76616c6964206f7261636c6560901b604482015260640161030e565b600480546001600160a01b0319166001600160a01b0383169081179091556040517f3df77beb5db05fcdd70a30fc8adf3f83f9501b68579455adbd100b818094039490600090a250565b6106a361095e565b600081116106e85760405162461bcd60e51b81526020600482015260126024820152710416d6f756e74206d757374206265203e20360741b604482015260640161030e565b6002546040516323b872dd60e01b8152336004820152306024820152604481018390526001600160a01b03909116906323b872dd906064016020604051808303816000875af115801561073f573d6000803e3d6000fd5b505050506040513d601f19601f820116820180604052508101906107639190610c02565b6107a15760405162461bcd60e51b815260206004820152600f60248201526e151c985b9cd9995c8819985a5b1959608a1b604482015260640161030e565b3360009081526007602052604090208054156107bf576107bf6109b7565b818160000160008282546107d39190610bd6565b909155505042600182018190556002820155600580548391906000906107fa908490610bd6565b90915550506040805183815242602082015233917f1449c6dd7851abc30abf37f57715f492010519147cc2652fbc38202c18a6ee90910160405180910390a2506104ac60018055565b6006546004546001600160a01b0316156108e5576004805460405163f66a1b7160e01b815260209281019290925260076024830152661452514bd554d160ca1b60448301526001600160a01b03169063f66a1b7190606401602060405180830381865afa9250505080156108d4575060408051601f3d908101601f191682019092526108d191810190610c5d565b60015b156108e55780156108e3578091505b505b90565b6108f0610acd565b6001600160a01b0381166109555760405162461bcd60e51b815260206004820152602660248201527f4f776e61626c653a206e6577206f776e657220697320746865207a65726f206160448201526564647265737360d01b606482015260840161030e565b6104ac81610b27565b6002600154036109b05760405162461bcd60e51b815260206004820152601f60248201527f5265656e7472616e637947756172643a207265656e7472616e742063616c6c00604482015260640161030e565b6002600155565b60006109c2336104af565b905060008111610a015760405162461bcd60e51b815260206004820152600a6024820152694e6f207265776172647360b01b604482015260640161030e565b33600090815260076020526040812042600282015560038101805491928492610a2b908490610bd6565b9091555050600354604051634d24848760e11b8152336004820152602481018490526001600160a01b0390911690639a49090e90604401600060405180830381600087803b158015610a7c57600080fd5b505af1158015610a90573d6000803e3d6000fd5b50506040518481523392507f106f923f993c2149d49b4255ff723acafa1f2d94393f561d3eda32ae348f7241915060200160405180910390a25050565b6000546001600160a01b031633146105755760405162461bcd60e51b815260206004820181905260248201527f4f776e61626c653a2063616c6c6572206973206e6f7420746865206f776e6572604482015260640161030e565b600080546001600160a01b038381166001600160a01b0319831681178455604051919092169283917f8be0079c531659141344cd1fd0a4f28419497f9722a3daafe3b4186f6b6457e09190a35050565b600060208284031215610b8957600080fd5b81356001600160a01b0381168114610ba057600080fd5b9392505050565b600060208284031215610bb957600080fd5b5035919050565b634e487b7160e01b600052601160045260246000fd5b80820180821115610be957610be9610bc0565b92915050565b81810381811115610be957610be9610bc0565b600060208284031215610c1457600080fd5b81518015158114610ba057600080fd5b8082028115828204841417610be957610be9610bc0565b600082610c5857634e487b7160e01b600052601260045260246000fd5b500490565b600060208284031215610c6f57600080fd5b505191905056fea2646970667358221220331c92ee9d0db329d55acb159e404e94a2c48c980d7862208f1dd219f9bbc9e464736f6c63430008140033",
  "linkReferences": {},
  "deployedLinkReferences": {}
}